:100000000C94AB000C94A6040C9406050C94C80048
:100010000C94C8000C94C8000C94C8000C94C80040
:100020000C94C8000C94C8000C94C8000C94C80030
:100030000C94C8000C94C8000C94C8000C94C80020
:100040000C94C8000C94C8000C94C8000C94C80010
:100050000C94C8006E616E00696E660000407A10F4
:10006000F35A00A0724E18090010A5D4E80000E869
:100070007648170000E40B54020000CA9A3B0000C7
:1000800000E1F505000080969800000040420F0056
:100090000000A08601000000102700000000E80317
:1000A000000000006400000000000A0000000000E2
:1000B0000100000000002C76D888DC674F0823DFA1
:1000C000C1DFAE59E1B1B796E5E3E453C63AE65174
:1000D000997696E8E6C28426EB898C9B62ED407C9B
:1000E0006FFCEFBC9C9F40F2BAA56FA5F490055A37
:1000F0002AF75C936B6CF9676DC11BFCE0E40D475C
:10010000FEF520E6B500D0ED902E0300943577057E
:100110000080841E080000204E0A000000C80C3336
:100120003333330F986E12831141EF8D2114893BC5
:10013000E65516CFFEE6DB18D1844B381BF77C1D45
:10014000901DA4BBE424203284725E228100C9F198
:1001500024ECA1E53D2711241FBECFE5D8E0DEBF8A
:10016000CDBF12E0A0E6B0E0E6E9F9E202C00590FA
:100170000D92A43DB107D9F724E0A4EDB2E001C08F
:100180001D92AA3BB207E1F70E9425050C94C91401
:100190000C9400009BB39F70282F207F922B9BBB59
:1001A000D898D99A35E03A95F1F70000D998E3EF5D
:1001B000F1E03197F1F700C000002BB32F70F0E1B0
:1001C0008F9FC0011124822B8BBBD99A35E03A95C1
:1001D000F1F70000D9988FEA96E30197F1F700C094
:1001E000000008959BB39F70282F207F922B9BBB0C
:1001F000D89AD99A35E03A95F1F70000D998E3EF0B
:10020000F1E03197F1F700C000002BB32F70F0E15F
:100210008F9FC0011124822B8BBBD99A35E03A9570
:10022000F1F70000D9988FEA96E30197F1F700C043
:10023000000008958AB3836F8ABB8FE39CE901971E
:10024000F1F700C0000083E30E94CA0082E30E942D
:10025000CA0088E20E94CA008CE00E94CA0086E0C0
:100260000E94CA0081E00E94CA000895CF93DF93E4
:10027000EC018881882331F021960E94F200899157
:100280008111FBCFDF91CF9108950F931F93CF93EF
:10029000DF93CDB7DEB76E970FB6F894DEBF0FBE13
:1002A000CDBF8E010F5F1F4F0E941511C8010E9424
:1002B00036016E960FB6F894DEBF0FBECDBFDF914C
:1002C000CF911F910F910895CF93DF93CDB7DEB7F4
:1002D0006E970FB6F894DEBF0FBECDBF4AE0BE01E9
:1002E0006F5F7F4F0E947612CE0101960E94360109
:1002F0006E960FB6F894DEBF0FBECDBFDF91CF91E3
:10030000089581E00E94CA0085E08A95F1F7000017
:1003100080E80E94CA0008958AB188618AB980B5D0
:10032000866880BD83E389B980B58F7780BD10BCB6
:1003300008955D9BFECF8CB908950F931F93CF93C3
:10034000FC018081882359F08F01C0E00E9499014F
:10035000CF5FF801EC0FF11D80818111F7CFCF91B4
:100360001F910F91089584B38C6184BB0895AB985D
:1003700027E030E03093E7032093E603E6EEF3E076
:1003800041E050E0AA989A01008002C0220F331F7A
:100390000A94E2F728233923232B11F4AC9801C0E7
:1003A000AC9AAA9A2091E6033091E70321503109D3
:1003B0003093E7032093E603332324F7AB9A0895A1
:1003C00084B3806E84BB0895AE981092EA021092B6
:1003D000E902E9EEF2E041E050E0AD989A010080D8
:1003E00002C0220F331F0A94E2F728233923232B5C
:1003F00011F4AF9801C0AF9AAD9A2091E902309103
:10040000EA022F5F3F4F3093EA022093E90228303F
:1004100031051CF3AE9A0895D29882E487B987E833
:1004200086B9089597B18F70982B97B9369A349BF7
:10043000FECF349A8FEC97E00197F1F700C00000EF
:1004400084B195B1089511B880E280B9089594EA15
:1004500096BF06B607FEFDCF91B1987F983089F41C
:1004600083B984E886BF06B607FEFDCF81B1887FD9
:1004700090E08831910541F0809749F083E090E069
:10048000089580E090E0089581E090E0089582E092
:1004900090E0089594EA96BF06B607FEFDCF91B1AD
:1004A000987F903191F483B984E886BF06B607FE41
:1004B000FDCF81B1887F90E08034910549F0883488
:1004C000910549F083E090E0089580E090E0089580
:1004D00081E090E0089582E090E0089583B984E897
:1004E00086BF06B607FEFDCF81B1887F90E08832D7
:1004F000910529F0C09731F082E090E0089580E006
:1005000090E0089581E090E0089584EC86BF06B6FF
:1005100007FEFDCF83B1089584E886BF06B607FEC7
:10052000FDCF83B1089584E986BF06B604FCFDCFF4
:1005300008959DEC899F912D1124969596959695F9
:10054000392F330F232F220F220F230F821B20E17D
:10055000929F800D11240895982F92959F70990F66
:10056000292F220F220F920F8F70890F0895EF927B
:10057000FF920F931F93CF93DF93D82F162FF42E54
:10058000C22F80ED0E94270280E00E946E028F2D14
:100590000E9499020E946E02812F0E9499020E947D
:1005A0006E028D2F0E9499020E946E0281E00E94CD
:1005B0006E028C2F0E9499020E946E02802F0E9470
:1005C00099020E946E028E2D0E9499020E946E0274
:1005D0000E949302DF91CF911F910F91FF90EF90B6
:1005E00008958F929F92AF92BF92CF92DF92EF9237
:1005F000FF920F931F93CF93DF936C015B014A012E
:10060000E90180ED0E94270280E00E946E0281EDE8
:100610000E944A020E9485020E94AC02F40180837B
:100620000E9485020E94AC02F50180830E9485022F
:100630000E94AC02F60180830E9485020E9485021E
:100640000E94AC0288830E9485020E94AC02F801DD
:1006500080830E948C020E94AC02F70180830E947A
:100660009302DF91CF911F910F91FF90EF90DF9058
:10067000CF90BF90AF909F908F900895CF93DF93CE
:10068000EC016DE770E00E943B12892B09F449C030
:1006900061E870E0CE010E943B12892B09F443C04F
:1006A00065E870E0CE010E943B12892BF1F169E808
:1006B00070E0CE010E943B12892BC9F16DE870E019
:1006C000CE010E943B12892BA1F161E970E0CE01BD
:1006D0000E943B12892B79F165E970E0CE010E94FE
:1006E0003B12892B51F169E970E0CE010E943B1267
:1006F000892B29F16DE970E0CE010E943B12892B14
:1007000001F161EA70E0CE010E943B12892BD9F021
:1007100065EA70E0CE010E943B12892BB1F08CE0BB
:1007200015C081E013C082E011C083E00FC084E0F7
:100730000DC085E00BC086E009C087E007C088E0F7
:1007400005C089E003C08AE001C08BE0DF91CF9152
:100750000895CF92DF92EF92FF92CF93DF9380EDD7
:100760000E94270281E10E946E0281ED0E944A02EE
:100770000E948502D82F0E948C02C82F0E949302EB
:10078000C295C695C695C3706C2F70E080E090E06E
:100790000E94170C20E030E040E85EE30E94CC0CA1
:1007A0006B017C016D2FDD0F770B880B990B0E947D
:1007B000170C9B01AC01C701B6010E94A40BDF918D
:1007C000CF91FF90EF90DF90CF900895CF93DF937C
:1007D000A0EFEFE041E050E062E070E0FFEEDFED1F
:1007E000CFEBBFE7A7BBE8BBE8BB000086B38F70C9
:1007F00080932C038F30C1F780B3807890E0909382
:100800002603809325032091620030916300232BFF
:1008100091F4009781F020916000309161002130C7
:10082000310529F4709361006093600004C0509317
:1008300061004093600090936300809362008FE3B7
:100840009CE90197F1F700C000008FE39CE9019754
:10085000F1F700C0000086B38F7080932C038F30B7
:1008600059F29FEF29EF80E0915020408040E1F75E
:1008700000C0000086B38F7080932C038F3009F482
:10088000BBCFF8BB000086B38F7080932C038F30F2
:1008900019F01092DE0224C0D8BB000086B38F701E
:1008A00080932C038F3021F081E08093DE0218C00A
:1008B000C8BB000086B38F7080932C038F3021F06B
:1008C00082E08093DE020CC0B8BB000086B38F705C
:1008D00080932C038F3009F485CF83E08093DE0270
:1008E00080912C038E3059F4E091DE02F0E0EE0F9F
:1008F000FF1FEE0FFF1FE359FF4F808124C08D3093
:1009000059F4E091DE02F0E0EE0FFF1FEE0FFF1F43
:10091000E359FF4F818117C08B3059F4E091DE021B
:10092000F0E0EE0FFF1FEE0FFF1FE359FF4F828134
:100930000AC0E091DE02F0E0EE0FFF1FEE0FFF1F96
:10094000E359FF4F8381DF91CF9108951F920F925A
:100950000FB60F9211248F939F938091D60290919E
:10096000D702892B39F481E090E09093D7028093ED
:10097000D60245C08091D6029091D702019739F4F2
:1009800082E090E09093D7028093D60238C08091A5
:10099000D6029091D702029739F483E090E09093C9
:1009A000D7028093D6022BC08091D6029091D702B5
:1009B000039739F484E090E09093D7028093D602B5
:1009C0001EC08091D6029091D702049739F485E039
:1009D00090E09093D7028093D60211C08091D60206
:1009E0009091D702059739F486E090E09093D70272
:1009F0008093D60204C01092D7021092D6029F9123
:100A00008F910F900FBE0F901F9018951F920F920D
:100A10000FB60F9211248F939F938BB78F778BBF55
:100A200088B599B58134910529F48CE291E099BD9E
:100A300088BD04C081E490E099BD88BD9F918F91ED
:100A40000F900FBE0F901F901895CF93DF93CDB7E7
:100A5000DEB76B970FB6F894DEBF0FBECDBF81B384
:100A60008B7781BB82B3846882BB0E941A0160E8E5
:100A700075E280E090E00E948C010E94B3010E9428
:100A80000C020E94E0010E9423020F2EF8EE2F2E8E
:100A9000F3E03F2EF02D2A8E3B8E21E434E02E8BA6
:100AA0003F8BEDE2F3E0E88FF98F80E48BBF83E0CA
:100AB00085BF78948091D6029091D702892B09F056
:100AC0003AC681E00E94CA0000E413E080E80E9478
:100AD000CA0089EA90E00E94360180EC0E94CA00B8
:100AE00086EB90E00E9436013FEF89E698E13150B5
:100AF00080409040E1F700C000000E94810180E842
:100B00000E94CA008FEB90E00E94360180EC0E94A8
:100B1000CA0080ED90E00E943601EFEFF9E628E18F
:100B2000E150F0402040E1F700C000000E94810148
:100B300080E80E94CA008FED90E00E9436013FEFEE
:100B400089E698E1315080409040E1F700C0000014
:100B500081E00E94CA000BBF15BF78948091D60235
:100B60009091D702892B09F4B1CFE5C581E00E94AD
:100B7000CA0080E80E94CA008FEE90E00E94360111
:100B800080EC0E94CA00109292031092910300E040
:100B900010E00E94E603F801E052FC4F8083809150
:100BA0006000909161008130910579F4209191036A
:100BB00030919203F901E052FC4F8081F901E85134
:100BC000FC4F80830E94F20011C0029779F480915B
:100BD000910390919203FC01E851FC4FDC01A0527B
:100BE000BC4F8C9180838AE20E94F20000919103B5
:100BF000109192030F5F1F4F109392030093910384
:100C00000630110534F2F101168266E670E08D2D92
:100C10009C2D0E943B12892B11F581E00E94CA0095
:100C200080E80E94CA008EEF90E00E94360180ECBE
:100C30000E94CA008FE091E00E943601FFEF23ED91
:100C400030E3F15020403040E1F700C000008091D7
:100C500064009091650004970CF44CC02AC0809108
:100C60006400909165000196909365008093640004
:100C700081E00E94CA0080E80E94CA008FE191E0F2
:100C80000E94360180EC0E94CA008EE291E00E9430
:100C900036018FEF93EDE0E381509040E040E1F7C3
:100CA00000C00000809164009091650004970CF4EE
:100CB0005DCF81E00E94CA0080E80E94CA008DE3F7
:100CC00091E00E94360180EC0E94CA008EE491E01F
:100CD0000E943601FFEF27EA31E6F1502040304014
:100CE000E1F700C0000081E090E090936500809300
:100CF00064001DC081E00E94CA0080E80E94CA0012
:100D00008DE591E00E9436018FEF97EAE1E6815090
:100D10009040E040E1F700C0000089E090E090934F
:100D20006500809364001092D7021092D6028091E1
:100D3000D6029091D702029709F0B0C181E00E94DB
:100D4000CA008D9A8E981FBC8EB580688EBD68943F
:100D5000CC24C6F80F2EF3E0DF2EF02D03E714E0CD
:100D600096C1CBBED5BE78949598FAE1FA95F1F785
:100D700000C0959A2AE12A95F1F700C095981DBC0C
:100D80001CBC88B7806288BF8EB580648EBD8EB56E
:100D9000887F8EBD8EB582608EBD08B605FEFDCF04
:100DA00086B597B5909397038093960388B7806232
:100DB00088BF8EB58F7B8EBD8EB5887F8EBD8EB57C
:100DC00082608EBD08B605FEFDCF66B577B570931F
:100DD000DD026093DC028091960390919703681B7B
:100DE000790B7093DB026093DA0280E090E00E945E
:100DF000150C4B015C016093E1027093E202809359
:100E0000E3029093E40220E030E040E05FE30E94E0
:100E1000CC0C60932103709322038093230390935F
:100E2000240328E23EE74CE05DE3C501B4010E94E3
:100E3000CC0C6093B6047093B7048093B80490937D
:100E4000B90420E030E040E05FE30E94CC0C609306
:100E5000E5027093E6028093E7029093E80280E84F
:100E60000E94CA008AE691E00E9436016091E50284
:100E70007091E6028091E7029091E80222E030E072
:100E800045E050E00E94450181EC91E00E9436016E
:100E900080E592E00E94360180EC0E94CA0081E762
:100EA00091E00E9436018091E4028F938091E302E9
:100EB0008F938091E2028F938091E1028F938AE772
:100EC00091E09F938F9321E434E03F932F930E940E
:100ED000DF12809124038F93809123038F9380915D
:100EE00022038F93809121038F93E3E9F1E0FF9335
:100EF000EF938DE293E09F938F930E94DF12809196
:100F0000B9048F938091B8048F938091B7048F9325
:100F10008091B6048F932CEA31E03F932F931F9377
:100F20000F930E94DF128E899F890E949D0185EC9C
:100F300091E00E949D01888D998D0E949D0185EC14
:100F400091E00E949D01C8010E949D0188EC91E002
:100F50000E949D018090E5029090E602A090E70239
:100F6000B090E8020FB6F894DEBF0FBECDBF20E010
:100F700030E849E854E4C501B4010E94C70C1816D2
:100F80006CF48FE792E00E9436018EE492E00E94BA
:100F9000360180E090E00E94B70179C020E030E89F
:100FA00049E854E4C501B4010E94100C1816BCF0C5
:100FB00020E030E44EE454E4C501B4010E94C70CC3
:100FC00018166CF48BE992E00E9436018EE492E0F0
:100FD0000E94360180EC90E00E94B70158C020E0EA
:100FE00030E44EE454E4C501B4010E94100C18161C
:100FF000BCF020E030E849E054E4C501B4010E94AF
:10100000C70C18166CF48DEC91E00E9436018EE44A
:1010100092E00E94360180E390E00E94B70137C061
:1010200020E030E849E054E4C501B4010E94100C0E
:101030001816BCF020E030E849E853E4C501B401DB
:101040000E94C70C18166CF48BE992E00E943601DE
:101050008EE492E00E9436018CE090E00E94B7019D
:1010600016C020E030E849E853E4C501B4010E940D
:10107000100C181664F08BE992E00E9436018EE4A1
:1010800092E00E94360183E090E00E94B7018091D7
:10109000D6029091D702029709F463CE8091D602CE
:1010A0009091D702039709F014C181E00E94CA0011
:1010B0006894772476F80F2EF3E08F2EF02D0F2E04
:1010C000F1EFAF2EB12CF02D0F2EF4E69F2EF02D68
:1010D0000F2EF5EE4F2E512CF02D0F2EF2EECF2EBF
:1010E000F1E0DF2EF02D0DE014E0ECC07BBE85BEFC
:1010F000789482E00E94120299230CF4039695954D
:101100008795959587959093DF038093DE039501EE
:10111000281B390B929EC001939E900D1124B201A1
:101120000E94B61077232CF070939503609394037C
:1011300004C0109295031092940380E80E94CA00A4
:1011400086ED91E00E943601809194039091950381
:101150000E94640180EE91E00E9436018EE492E0EC
:101160000E9436018091DF038F938091DE038F937D
:10117000DF92CF921F930F930E94DF12C8010E944B
:101180009D0185EC91E00E949D01809194039091D6
:1011900095030F900F900F900F900F900F90843643
:1011A0009105A1F480E690E00E94E40180EC0E94A9
:1011B000CA008FEE91E00E94360184E692E00E9420
:1011C00036018EE492E00E9436017CC0AC019C01A5
:1011D0002155310923313105A0F481E690E00E94C8
:1011E000E40180EC0E94CA008FEE91E00E9436017B
:1011F00084E692E00E9436018EE492E00E9436017D
:1012000061C09C01225431092F303105A0F483E6DE
:1012100090E00E94E40180EC0E94CA008FEE91E011
:101220000E94360184E692E00E9436018EE492E04C
:101230000E94360147C09C012E52310924313105EC
:10124000A0F487E690E00E94E40180EC0E94CA00CE
:101250008FEE91E00E94360184E692E00E94360112
:101260008EE492E00E9436012DC045974997A0F484
:101270008FE090E00E94E40180EC0E94CA008FEEB3
:1012800091E00E94360181E492E00E9436018EE4F2
:1012900092E00E94360116C04531510598F48FE165
:1012A00090E00E94E40180EC0E94CA008FEE91E081
:1012B0000E94360181E492E00E9436018EE492E0C1
:1012C0000E9436018091D6029091D702039709F4CB
:1012D0000DCF8091D6029091D702049709F012C1E8
:1012E00081E00E94CA0085EC91E00E949D0189E0A6
:1012F000EEEBF2E0DE011D9601900D928A95E1F78A
:1013000068EF71E0CE010D960E9436120E943511F1
:101310008093930368EF71E080E090E00E943612C2
:101320000E9435118093270368EF71E080E090E020
:101330000E9436120E943511809320038CE0E7EC66
:10134000F2E0DE01119601900D928A95E1F765E5D4
:1013500072E0CE0101960E9436120E943E038093F5
:101360001F0365E572E080E090E00E9436120E9463
:1013700035118093400465E572E080E090E00E94C2
:1013800036120E94351164E670E00E94B610809318
:101390003F04E82E00911F03209140044091200358
:1013A00060912703809193030E94B7028091D60237
:1013B0009091D702049709F0A5C00F2EFAEFCF2E17
:1013C000F1E0DF2EF02D0F2EF8E98F2EF3E09F2EA7
:1013D000F02D0F2EFBEEAF2EF2E0BF2EF02D0F2ED4
:1013E000F9E04F2EF2E05F2EF02D0F2EFFE56F2E6D
:1013F000F3E07F2EF02DF0E4FBBF23E025BF7894CF
:101400000F2EFFE3EF2EF4E0FF2EF02D0FE113E09F
:1014100020E434E040E253E067E273E083E993E0E4
:101420000E94F1020E94A90360932803709329038C
:1014300080932A0390932B03809120031F928F9314
:10144000809127031F928F93809193031F928F9314
:10145000DF92CF929F928F920E94DF1280913F0481
:101460001F928F9380911F031F928F93809140044E
:101470001F928F93DF92CF92BF92AF920E94DF12A2
:1014800080912B038F9380912A038F93809129035E
:101490008F93809128038F935F924F927F926F92E8
:1014A0000E94DF1280E80E94CA008EE192E00E9452
:1014B0003601C4010E94360180EC0E94CA0085E218
:1014C00092E00E943601C5010E943601C3010E94CC
:1014D0009D0185EC91E00E949D013FE788E391E04A
:1014E000315080409040E1F700C000008091D6026A
:1014F0009091D7020FB6F894DEBF0FBECDBF049710
:1015000009F479CF8091D6029091D702059709F01E
:101510007FC0D39881E00E94CA0085EC91E00E94D0
:101520009D018091D6029091D702059709F070C075
:101530006894AA24A6F80F2EF3E0BF2EF02D0F2EEC
:10154000F7E6CF2EF2E0DF2EF02D07EA14E0ABBE77
:10155000B5BE789489B3887090E09093A604809388
:10156000A504892BD9F480E090E00E94E40180E892
:101570000E94CA008CE292E00E9436018FE792E05E
:101580000E94360180EC0E94CA0084E392E00E942F
:10159000360185E492E00E9436011AC080EA90E0AC
:1015A0000E94E40180E80E94CA008CE292E00E945E
:1015B00036018BE992E00E94360180EC0E94CA005D
:1015C00087E592E00E94360185E492E00E943601B0
:1015D0008091A6048F938091A5048F93DF92CF9280
:1015E0001F930F930E94DF12C8010E949D0185EC9A
:1015F00091E00E949D018091D6029091D7020F90B8
:101600000F900F900F900F900F90059709F49FCFB8
:101610008091D6029091D702069709F046CA8C9A1B
:101620008B981DBC1CBC83EC99E097BD86BD82E203
:101630008FBD8BE18EBD81E490E099BD88BD81E0D6
:101640000E94CA0085EC91E00E949D018091D60223
:101650009091D702069709F028CA0F2EF0ECBF2E02
:10166000F02D0F2EF3EBCF2EF2E0DF2EF02D0FEE4C
:1016700013E0BBBE85B7876085BF85B7877F85BF11
:10168000789488B599B581349105B9F480E80E94C1
:10169000CA0089E792E00E94360188E492E00E9445
:1016A00036018B2D0E94CA0088E892E00E94360124
:1016B0008AE492E00E94360116C080E80E94CA00C7
:1016C00085E992E00E94360188E492E00E943601AA
:1016D0008B2D0E94CA0084EA92E00E94360188E4C1
:1016E00092E00E94360188B599B59F938F93DF925F
:1016F000CF921F930F930E94DF12C8010E949D0199
:1017000085EC91E00E949D018091D6029091D702D4
:101710000F900F900F900F900F900F90069709F475
:10172000A8CFC3C981E090E09093650080936400E6
:10173000DA8CCB8C1BCA8091D6029091D70201978C
:1017400009F0F5CAEFCF5058BB27AA270E94BB0B60
:101750000C948D0C0E947F0C38F00E94860C20F0B7
:1017600039F49F3F19F426F40C947C0C0EF4E095A8
:10177000E7FB0C94760CE92F0E949E0C58F3BA17E5
:10178000620773078407950720F079F4A6F50C9497
:10179000C00C0EF4E0950B2EBA2FA02D0B01B90151
:1017A00090010C01CA01A0011124FF27591B99F0D7
:1017B000593F50F4503E68F11A16F040A22F232FE3
:1017C000342F4427585FF3CF469537952795A79533
:1017D000F0405395C9F77EF41F16BA0B620B730BDA
:1017E000840BBAF09150A1F0FF0FBB1F661F771F4B
:1017F000881FC2F70EC0BA0F621F731F841F48F400
:10180000879577956795B795F7959E3F08F0B0CF88
:101810009395880F08F09927EE0F9795879508956F
:101820000E94520C08F481E00895E89409C097FBE7
:101830003EF490958095709561957F4F8F4F9F4FA7
:101840009923A9F0F92F96E9BB279395F6958795EB
:1018500077956795B795F111F8CFFAF4BB0F11F4AE
:1018600060FF1BC06F5F7F4F8F4F9F4F16C0882355
:1018700011F096E911C0772321F09EE8872F762F8B
:1018800005C0662371F096E8862F70E060E02AF0CC
:101890009A95660F771F881FDAF7880F96958795B8
:1018A00097F90895990F0008550FAA0BE0E8FEEF8D
:1018B00016161706E807F907C0F012161306E40714
:1018C000F50798F0621B730B840B950B39F40A260D
:1018D00061F0232B242B252B21F408950A2609F4EB
:1018E000A140A6958FEF811D811D089597F99F67EF
:1018F00080E870E060E008959FEF80EC0895002498
:101900000A941616170618060906089500240A9464
:1019100012161306140605060895092E0394000CEA
:1019200011F4882352F0BB0F40F4BF2B11F460FF79
:1019300004C06F5F7F4F8F4F9F4F089557FD9058A2
:10194000440F551F59F05F3F71F04795880F97FB83
:10195000991F61F09F3F79F087950895121613063D
:101960001406551FF2CF4695F1DF08C0161617066C
:101970001806991FF1CF86957105610508940895A1
:10198000E894BB2766277727CB0197F908950E9433
:10199000520C08F48FEF08950E94DF0C0C948D0C0C
:1019A0000E947F0C38F00E94860C20F0952311F0E5
:1019B0000C94760C0C947C0C11240C94C10C0E9499
:1019C0009E0C70F3959FC1F3950F50E0551F629FD9
:1019D000F001729FBB27F00DB11D639FAA27F00D88
:1019E000B11DAA1F649F6627B00DA11D661F829FAF
:1019F0002227B00DA11D621F739FB00DA11D621F94
:101A0000839FA00D611D221F749F3327A00D611DB0
:101A1000231F849F600D211D822F762F6A2F112492
:101A20009F5750409AF0F1F088234AF0EE0FFF1FC5
:101A3000BB1F661F771F881F91505040A9F79E3F1C
:101A4000510580F00C94760C0C94C10C5F3FE4F3CC
:101A5000983ED4F3869577956795B795F795E79572
:101A60009F5FC1F7FE2B880F911D9695879597F97B
:101A70000895A0E1B0E0EFE3FDE00C94CA107C0112
:101A80001B016A01FC0117821682838181FF44C316
:101A90009E012F5F3F4F3901F7019381F10193FDC3
:101AA000859193FF81911F01882309F431C3853209
:101AB00039F493FD859193FF81911F01853239F4AB
:101AC000B70190E00E94A31256016501E5CF10E036
:101AD000512C912CFFE1F915D8F08B3279F038F4C4
:101AE000803279F08332A1F4F92DF0612EC08D326D
:101AF00061F0803369F4292D21602DC0392D3260C9
:101B0000932E892D8460982E2AC0E92DE86015C097
:101B100097FC2DC020ED280F2A3088F496FE06C0D1
:101B20003AE0139F200D1124122F19C08AE0589E0D
:101B3000200D1124522EE92DE0629E2E10C08E320F
:101B400031F496FCE5C2F92DF0649F2E08C08C3666
:101B500021F4292D2068922E02C0883641F4F1012B
:101B600093FD859193FF81911F018111B3CF9BEB71
:101B7000980F933020F4992D9061805E07C09BE907
:101B8000980F933008F066C1992D9F7E96FF16E05E
:101B90009F73992E853619F49064992E08C0863665
:101BA00021F4392F3068932E02C01111115097FE85
:101BB00007C01C3350F444244394410E27E00BC06B
:101BC000183038F027E017E005C027E09CE3492EE5
:101BD00002C0212F412C560184E0A80EB11CF60151
:101BE0006081718182819381042DA3010E94531130
:101BF0006C01F981FC87F0FF02C0F3FF06C091FC85
:101C000006C092FE06C000E205C00DE203C00BE272
:101C100001C000E08C858C7019F001115AC29BC282
:101C200097FE10C04C0CFC85F4FF04C08A81813300
:101C300009F44A94141474F528E0241578F588E022
:101C4000482E2CC096FC2AC0812F90E08C159D0553
:101C50009CF03CEFC3163FEFD30674F0892D8068EB
:101C6000982E0AC0E2E0F0E0EC0FFD1FE10FF11D3D
:101C70008081803319F411501111F4CF97FE0EC0FA
:101C800044244394410E812F90E0C816D9062CF4C9
:101C90001C1904C04424439401C010E097FE06C000
:101CA0001C141D0434F4C601019605C085E090E0C3
:101CB00002C081E090E001110196112331F0212F43
:101CC00030E02F5F3F4F820F931F252D30E08217AA
:101CD000930714F4581A01C0512C892D897049F4C6
:101CE000552039F0B70180E290E00E94A3125A9487
:101CF000F7CF002329F0B701802F90E00E94A312B4
:101D000093FC09C0552039F0B70180E390E00E94B0
:101D1000A3125A94F7CF97FE4CC04601D7FE02C0DB
:101D2000812C912CC60188199909F301E80FF91F3C
:101D3000FE87ED87960124193109388B2F87012FF3
:101D400010E01195019511093FEF8316930629F4D0
:101D5000B7018EE290E00E94A312C814D9044CF09F
:101D60008F8598898815990524F4ED85FE858181F4
:101D700001C080E3F1E08F1A91082D853E852F5F29
:101D80003F4F3E872D87801691062CF0B70190E0DB
:101D90000E94A312D9CFC814D90441F49A81963372
:101DA00020F4953319F43C8534FF81E3B70190E0CA
:101DB0004EC08A81813319F09C859F7E9C87B70134
:101DC00090E00E94A312111105C094FC18C085E692
:101DD00090E017C0B7018EE290E00E94A3121E5F50
:101DE00082E001E0080FF301E80FF11D8081B701E7
:101DF00090E00E94A312802F0113F3CFE6CF85E479
:101E000090E0B7010E94A312D7FC06C0C114D10410
:101E100041F4EC85E4FF05C0D194C194D1088DE272
:101E200001C08BE2B70190E00E94A31280E32AE098
:101E3000C216D1042CF08F5FFAE0CF1AD108F7CF89
:101E4000B70190E00E94A312B701C601C0960E949C
:101E5000A31254C1833631F0833779F0833509F00A
:101E600056C020C0560132E0A30EB11CF60180819D
:101E7000898301E010E0630112C05601F2E0AF0E69
:101E8000B11CF601C080D18096FE03C0612F70E0C6
:101E900002C06FEF7FEFC6010E9444128C01F92D42
:101EA000FF7714C0560122E0A20EB11CF601C080DB
:101EB000D18096FE03C0612F70E002C06FEF7FEF0C
:101EC000C6010E942B128C01F92DF0689F2EF3FDA4
:101ED0001AC0852D90E008171907A8F4B70180E211
:101EE00090E00E94A3125A94F4CFF60197FC8591DA
:101EF00097FE81916F01B70190E00E94A3125110EB
:101F00005A94015011090115110579F7F7C084366B
:101F100011F0893661F5560197FE09C024E0A20E42
:101F2000B11CF60160817181828193810AC0F2E067
:101F3000AF0EB11CF60160817181072E000C880B79
:101F4000990BF92DFF769F2E97FF09C090958095EC
:101F5000709561957F4F8F4F9F4FF0689F2E2AE0BD
:101F600030E0A3010E940113C82EC6183FC0092DFE
:101F7000853721F40F7E2AE030E01DC0097F8F36BF
:101F800091F018F4883559F0C3C0803719F08837BC
:101F900011F0BEC0006104FF09C0046007C094FED8
:101FA00008C0066006C028E030E005C020E130E04F
:101FB00002C020E132E0560107FF09C084E0A80E0C
:101FC000B11CF601608171818281938108C0F2E0C9
:101FD000AF0EB11CF6016081718180E090E0A30139
:101FE0000E940113C82EC6180F77902E96FE0BC0C4
:101FF000092D0E7FC11650F494FE0AC092FC08C051
:10200000092D0E7E05C0DC2C092D03C0DC2C01C07F
:10201000D12E04FF0DC0FE01EC0DF11D8081803337
:1020200011F4097E09C002FF06C0D394D39404C002
:10203000802F867809F0D39403FD11C000FF06C0FD
:102040001C2DD51480F4150D1D190DC0D51458F490
:10205000B70180E290E00E94A312D394F7CFD51489
:1020600010F45D1801C0512C04FF10C0B70180E3CB
:1020700090E00E94A31202FF17C001FD03C088E791
:1020800090E002C088E590E0B7010CC0802F867810
:1020900059F001FF02C08BE201C080E207FD8DE232
:1020A000B70190E00E94A312C11638F4B70180E393
:1020B00090E00E94A3121150F7CFCA94F301EC0DE7
:1020C000F11D8081B70190E00E94A312C110F5CFED
:1020D00015C0F4E0F51560F584E0581A93FE1FC0B2
:1020E000011127C02C8523FF2AC004E510E0392DFB
:1020F0003071932EF8018491811124C0552009F488
:10210000E4CCB70180E290E00E94A3125A94F6CF8B
:10211000F7018681978126C08FEF9FEF23C0B7011B
:1021200080E290E00E94A3125A945110F8CFD8CFC9
:10213000512CB701802F90E00E94A312D3CF08E565
:1021400010E0D5CF91108052B70190E00E94A31209
:102150000F5F1F4FCFCF23E0251510F483E0BDCFD5
:10216000512CC0CF6096E2E10C94E61097FB072E4D
:1021700016F4009407D077FD09D00E94011107FCE6
:1021800005D03EF4909581959F4F08957095619587
:102190007F4F08952F923F924F925F926F927F925E
:1021A0008F929F92AF92BF92CF92DF92EF92FF9267
:1021B0000F931F93CF93DF93CDB7DEB7CA1BDB0B13
:1021C0000FB6F894DEBF0FBECDBF09942A883988B8
:1021D00048885F846E847D848C849B84AA84B984BF
:1021E000C884DF80EE80FD800C811B81AA81B981CB
:1021F000CE0FD11D0FB6F894DEBF0FBECDBFED01DF
:102200000895AA1BBB1B51E107C0AA1FBB1FA6173D
:10221000B70710F0A61BB70B881F991F5A95A9F78F
:1022200080959095BC01CD010895EF920F931F9377
:10223000CF93DF93E80147FD02C034E001C034E1F1
:10224000042E000C550B57FF03C0519541955109C1
:10225000E32E022F242FAE010E945F13CE01DF91E7
:10226000CF911F910F91EF900895FC018827992736
:10227000E89421912032E9F3293010F02E30C8F390
:102280002B3241F02D3239F4689404C00E9481123F
:10229000820F911D219120532A30C0F31EF4909596
:1022A00081959F4F0895283008F027E03327DA0101
:1022B000990F311D87FD916000966105710539F414
:1022C00032602E5F3D9330E32A95E1F708959F3FFA
:1022D00030F080387105610509F03C5F3C5F3D934B
:1022E000913008F08068911DDF93CF931F930F9377
:1022F000FF92EF92192F987F9695E92F96959695D4
:10230000E90FFF27EA54FF4F99273327EE24FF24D4
:10231000A701E70105900894079428F4360FE71EFB
:10232000F81E491F511D660F771F881F991F0694BD
:10233000A1F70590079428F4E70EF81E491F561FD1
:10234000C11D770F881F991F661F0694A1F705907E
:10235000079428F4F80E491F561FC71FD11D880F78
:10236000991F661F771F0694A1F70590079420F424
:10237000490F561FC71FD81F990F661F771F881F49
:102380000694A9F784911095177041F0D695C795DA
:1023900057954795F794E7941A95C1F7ECE5F0E067
:1023A00068941590159135916591959105907FE20E
:1023B0007395E118F10A430B560BC90BD009C0F70E
:1023C000E10CF11E431F561FC91FD01D7EF4703350
:1023D00011F48A95E6CFE894015030F0080F0AF422
:1023E0000027021708F4202F2395022F7A3328F0B4
:1023F00079E37D932A95E9F710C07D932A9589F6B4
:10240000069497956795379517951794E118F10AF3
:10241000430B560BC90BD00998F023957E91739509
:102420007A3308F070E37C932013B8F77E917061E3
:102430007D9330F0839571E37D9370E32A95E1F706
:102440001124EF90FF900F911F91CF91DF91992769
:1024500087FD90950895FC01059061507040011032
:10246000D8F7809590958E0F9F1F089544ED52E008
:102470000E944F120895FB01DC018D91019080199B
:102480000110D9F3990B0895FC016150704001903F
:102490000110D8F7809590958E0F9F1F0895FA012F
:1024A000A191B081009719F41097E1F0CD01DC0102
:1024B000CD010D90002011F4C00113C0FB0121914A
:1024C000222319F02015D9F7F3CFFB012191201514
:1024D00019F41E92119606C02223C1F70D90002018
:1024E000A1F7D001FA01A193B0830895BB274A3028
:1024F00031F4992322F4BDE2909581959F4F0C947D
:102500008A127AE0979F902D879F802D910D11243C
:102510000895BB27FB015527AA27880F991FAA1FDB
:10252000A41710F0A41B83955051B9F7A05DAA33EE
:1025300008F0A95DA193009779F7B111B1931192B9
:10254000CB010C94B9140F931F93CF93DF93FB012E
:10255000238121FD03C08FEF9FEF2CC022FF16C007
:1025600046815781248135814217530744F4A08165
:10257000B1819D012F5F3F4F318320838C93268152
:1025800037812F5F3F4F3783268314C08B01EC01C7
:10259000FB010084F185E02D0995892BE1F6D80136
:1025A00016968D919C911797019617969C938E93F2
:1025B0001697CE01DF91CF911F910F910895AEE054
:1025C000B0E0E5EEF2E10C94D8100D891E8986E0AA
:1025D0008C831A8309838FEF9FE79E838D83AE01DF
:1025E000475E5F4F6F89788DCE0101960E94390D4D
:1025F000EF81F885E00FF11F10822E96E4E00C9435
:10260000F410FA01AA27283051F1203181F1E89421
:102610006F936E7F6E5F7F4F8F4F9F4FAF4FB1E0D5
:102620003ED0B4E03CD0670F781F891F9A1FA11DD0
:10263000680F791F8A1F911DA11D6A0F711D811DD1
:10264000911DA11D20D009F468943F912AE0269F96
:1026500011243019305D3193DEF6CF010895462FF5
:102660004770405D4193B3E00FD0C9F7F6CF462FD6
:102670004F70405D4A3318F0495D31FD405241933F
:1026800002D0A9F7EACFB4E0A695979587957795FC
:102690006795BA95C9F700976105710508959B0183
:1026A000AC010A2E06945795479537952795BA950C
:1026B000C9F7620F731F841F951FA01D0895A9E01D
:1026C000B0E0E5E6F3E10C94D0106A01122FB02ED1
:1026D0002BE3201720F0FF24F394F00E02C02CE32C
:1026E000F22E0F2D27E0AE014F5F5F4F0E94531176
:1026F000BC014981842F8970813031F0E1FC06C032
:10270000E0FE06C090E205C09DE203C09BE201C06E
:1027100090E05E2D507143FF3CC0911102C083E0F8
:1027200001C084E0811718F4212F281B01C020E08C
:1027300051110BC0F601822F30E2882319F031933A
:102740008150FBCFC20ED11C20E0992329F0D60185
:102750009C93F60131966F01C6010396E2FE0AC012
:102760003EE4D6013C9341E411964C9311971296A6
:102770003C9306C03EE6F601308341E64183328356
:10278000FC01322F40E2332309F442C0419331501F
:10279000FACF42FF44C0911102C083E001C084E03F
:1027A000811718F4212F281B01C020E051110BC004
:1027B000F601822F30E2882319F031938150FBCF4C
:1027C000C20ED11C20E0992329F0D6019C93F6017A
:1027D00031966F01C6010396E2FE0BC039E4D601C3
:1027E0003C933EE411963C93119736E412963C9349
:1027F00007C039E6F60130833EE6318336E63283A0
:10280000FC01322F40E2332319F041933150FBCFCA
:10281000FC01E20FF11D10828EEF9FEFA6C021E0B8
:1028200030E0911102C020E030E0161617061CF4CB
:10283000FB01319602C0E1E0F0E02E0F3F1FBB200C
:1028400021F0EB2DF0E0319602C0E0E0F0E02E0F39
:102850003F1FE12FF0E02E173F071CF4121B212F22
:1028600001C020E08E2D887159F4F601822F30E2EC
:10287000882319F031938150FBCFC20ED11C20E088
:10288000992329F0D6019C93F60131966F015111DD
:102890000BC0F601822F90E3882319F091938150A9
:1028A000FBCFC20ED11C20E00F2D060F9A81342FD2
:1028B000307144FF03C0913309F40150101624F421
:1028C000093018F008E001C001E0AB0177FF02C059
:1028D00040E050E0FB01E41BF50BA1E0B0E0AC0FE1
:1028E000BD1FEA0FFB1F8EE2A82E4B01801A910834
:1028F0000B2D10E01195019511094F3FBFEF5B07BC
:1029000021F4D601AC9211966D01641775072CF075
:102910008416950614F4818101C080E34150510969
:102920003196D60111967D014017510724F0D6014A
:102930008C936701E2CF6417750739F4963320F45E
:10294000953319F4311101C081E3F6018083F70159
:10295000822F90E2882319F091938150FBCFF701E9
:10296000E20FF11D108280E090E02996ECE00C94DB
:10297000EC10DC01FC01672F71917723E1F73297AE
:1029800004C07C916D9370836291AE17BF07C8F34A
:062990000895F894FFCF4A
:102996000100010001003132333435360037383951
:1029A6002F3435362A3132332D43303D2B4A616E72
:1029B60000466562004D617200417072004D61799A
:1029C600004A756E004A756C004175670053657064
:1029D600004F6374004E6F7600507265737320501B
:1029E600623120746F0073746172742E2E2E003162
:1029F6002E504153532020322E4D4F54494F4E00F6
:102A0600332E464952452020342E5241494E003538
:102A16002E53554E2E4C2020362E54454D500045F3
:102A26006E7465722050617373776F726400434FE2
:102A360052524543542050415353574F524400413C
:102A46004343455353204752414E54454421005772
:102A5600524F4E472050415353574F524400414323
:102A6600434553532044454E49454421004154545F
:102A7600454D505453204641494C45442100535935
:102A86005354454D204C4F434B454421004C4F4732
:102A960047454420494E2E2E2E00455444203A20C8
:102AA600004D4F54494F4E3A20006563686F54728B
:102AB6006176656C54696D65203A20252E32662054
:102AC6004D73006563686F54617267657454696D10
:102AD60065203A20252E3266204D73006563686FA7
:102AE60054726176656C44697374203A20252E32DF
:102AF6006620636D000D0A000D0D0A0A00504F4452
:102B060049544956450053554E2D4C2E203A200027
:102B160025004C44522056616C203A202564004D15
:102B26004F544F52203A20003A00253032643A255D
:102B36003032643A253032640054454D5045524196
:102B460054555245203A20252E31662043005449DB
:102B56004D453A2000444154453A200046495245E5
:102B6600203A2000532E4D2E7C204D4F544F523A82
:102B7600204F4646002020202020202020202020F4
:102B860020202020202000442E4D2E7C204D4F5406
:102B96004F523A204F4E00464C414D452053454E2C
:102BA600534F52203A202564005241494E3A204E56
:102BB600454741544956450057494E444F575320BF
:102BC6004F50454E005241494E3A20504F534954BA
:102BD6004956450057494E444F575320434C4F538F
:102BE6004544004F43523142203A20256400313299
:102BF6003A31313A3333004170722032322032306A
:042C06003236000062
:00000001FF
